:100000000C942A001895000018950000189500001F
:10001000189500001895000018950000189500002C
:10002000189500001895000018950000189500001C
:10003000189500001895000018950000189500000C
:1000400018950000189500001895000018950000FC
:10005000189500000024112422243324442455241C
:100060006624772488249924AA24BB24CC24DD2464
:10007000EE24FF2400271127222733274427552762
:100080006627772788279927AA27BB27CC27DD272C
:10009000EE27FF270FE50DBF08E00EBFE0E60027C3
:1000A0000193F830E9F7EF35D9F7EE27FF270FBFB7
:1000B00000C02FD003E001BF00E002BF12E0A2E3C6
:1000C000B0E0B0D011E0A6E4B0E0ACD030D02FD09A
:1000D0002ED02DD02CD029C0E000E200EE00FA0096
:1000E0000895909A13E0ABE7B0E09CD00895919A00
:1000F00014E0AFE5B1E096D00895909811E0A4ED3A
:10010000B0E090D00895919812E0A3EDB0E08AD0CD
:1001100008953FD032D01CE015BD112714BD1DE756
:1001200013BD10E819BF7894089542D0FECF1F93F5
:100130001FB71F93EF93FF930F93EBE6F0E005E0FB
:1001400010811F3F79F0E89411811150118309F05B
:10015000689412811040128329F426F010814FD048
:100160001FEF1083ED5FFF4F0A9551F70F91FF913D
:10017000EF911F911FBF1F911895EF93FF93E0E63A
:10018000F0E01FEF0BE011930A95E9F7FF91EF9173
:100190000895EF93FF93EBE6F0E005E01FEF20E01A
:1001A0001193219321930A95D9F7FF91EF91089527
:1001B000E0E6F0E010811F3F09F1FF27110FE12F6A
:1001C00018EDE10F10E0F11FC895102D0190C895B2
:1001D000E12FF02DEF93FF930AE0E0E6F0E0F894D2
:1001E000118111930A95E1F71FEF11937894FF9114
:1001F000EF918894F795E795889409940895EF9383
:10020000FF932F930F93E0E6F0E00BE021912F3F57
:1002100019F00A9511F0FACF12930F912F91FF91D7
:10022000EF910895EF93FF932F930F93EBE6F0E098
:1002300005E02081211729F0ED5FFF4F0A9521F09D
:10024000F8CFA183B28310C0EBE6F0E005E0208197
:100250002F3F29F0ED5FFF4F0A9531F0F8CFF8946A
:100260001083A183B28378940F912F91FF91EF9126
:020270000895EF
:10027200000000000000000000000000000000007C
:0A0282000000000000000000000072
:00000001FF
